:020000020000FC
:0200000029C015
:020004004CC0EE
:0200080055C0E1
:02004C003EC0B4
:100054000FE50DBF04E00EBF08D00CD010D018D0AF
:100064007894000000000000FCCF00EF01BB929ADE
:10007400939A08950AE005BF00EC0BBF089500E0D1
:1000840002BF02E009BF0DE003BF00E80CBF089502
:1000940030E102B3032B02BB08950F930FB70F9304
:1000A4001CB702E0100F1CBF0F910FBF0F911895E2
:1000B4000F930FB70F931CB702E0101B1CBF0F91D7
:1000C4000FBF0F911895330F09F001C030E102B34F
:1000D4000F70032B02BB18952F931F930F930FEFF1
:1000E4001FEF24E12A95F1F71A95D9F70A95C1F77C
:0800F4000F911F912F91089557
:00000001FF
