:020000020000FC
:0200000029C015
:100054000FE50DBF04E00EBF442704D013D0000009
:100064000000FDCFA0E0B0E0C0E6D0E0E199FECF13
:10007400BFBBAEBBE09A1DB319931196103009F0C3
:10008400F5CF08950E948F00A0E6B0E00C910030F7
:1000940031F00E94750001E0A00FB41FF7CF08955E
:1000A4000F930BE00F930FEE0A95F1F70F910A955A
:1000B400C9F70F9108950F930FEF0A950000000000
:1000C400E1F70F9108950F9300E004BBC298C19A21
:1000D400E7DFC09AE5DF03B3C09807FDF9CFC19805
:1000E400C2980F9108951F93EEDFC198C29A1FEF33
:1000F40014BB05BBC09AC098112714BB1F91089567
:100104001F93E1DFC198C2981FEF14BB05BBC09ACF
:10011400C098112714BB1F9108950F93002704BBA7
:1001240005BBBA9AB89AC29AC09AB99A08E3E8DFAA
:100134000CE0E6DF06E0E4DF01E0E2DF0F91089582
:00000001FF
