:020000020000FC
:0200000029C015
:020004004BC0EF
:0200080054C0E2
:02004C003DC0B5
:100054000FE50DBF04E00EBF07D00BD013D017D0AF
:10006400789400000000FDCF00EF01BB0CE002BB60
:100074000895002702BF02E009BF05E003BF00E8BE
:100084000CBF089530E102B3032B02BB08950AE0CC
:1000940005BF00EC0BBF08950F930FB70F930CB778
:1000A4001AE0011B0CBF0F910FBF0F9118950F930E
:1000B4000FB70F930CB71AE0010F0CBF0F910FBFCE
:1000C4000F911895330F09F001C030E102B30F709E
:1000D400032B02BB002702BF189500E61FEF2FEF8A
:1000E4002A952030E9F71A95D1F70A95B9F70895BA
:00000001FF
