:020000020000FC
:0200000029C015
:020004005DC0DD
:020020005BC0C3
:02001C0054C0CE
:100054000FE50DBF04E00EBF30E040E016D01ED027
:1000640028D0789400000000FDCF2F931F930F93A6
:100074000FEF1FEF2AE02A95F1F71A95D9F70A95A1
:10008400C1F70F911F912F91089500E00BBB0FEF63
:100094000ABB00E001BB929A939A0895002708E0F6
:1000A40009BF00270DBD0CBD00E009BD0EE108BD70
:1000B400089500E40BBF0AE005BF089505E00EBDF6
:1000C4001895339500270DBD0CBD3A3009F44395BE
:0C00D4004BBB189500E00EBD0BBB18954F
:00000001FF
