:020000020000FC
:0200000029C015
:0200380020C0E6
:100054000FE50DBF04E00EBF09D004D07894000072
:100064000000FDCF0FEF05BB04BB189500E607B9F0
:100074000FEF06B908950F9305B11FEF011718F09C
:100084000FEF05BB18951FE7011720F00FE705BB1D
:100094000F9118951FE3011720F00FE305BB0F9193
:1000A40018951FE1011720F00FE105BB0F9118957A
:1000B4001FE0011720F00FE005BB0F91189517E022
:1000C400011720F007E005BB0F91189513E0011705
:1000D40020F003E005BB0F91189511E0011720F003
:1000E40001E005BB0F91189500E005BB0F91189531
:00000001FF
