:020000020000FC
:0200000029C015
:020004005AC0E0
:0200080066C0D0
:100054000FE50DBF04E00EBF22D07894849B04D03A
:10006400000000000000FACF0F930AB700740ABF23
:1000740006D00BB720E802270BBF0F9108952F93EA
:100084001F930F930FEF1FEF2AE02A95F1F71A95AC
:10009400D9F70A95C1F70F911F912F910895002761
:1000A40001BB0BBB0FEF02BB0ABB33270FE005BF3D
:1000B40000EC0BBF08950F93E2DF0AB700740ABF88
:1000C4000FB70F933395032F0BBB0F910FBF0F91F6
:1000D4001895D5DF0F930AB700780ABF0FB70F93AF
:0E00E4003A95032F0BBB0F910FBF0F9118958C
:00000001FF
